{
  "abi": [
    {
      "anonymous": false,
      "inputs": [
        {
          "indexed": true,
          "internalType": "address",
          "name": "property",
          "type": "address"
        },
        {
          "indexed": true,
          "internalType": "address",
          "name": "owner",
          "type": "address"
        }
      ],
      "name": "NewProperty",
      "type": "event"
    },
    {
      "inputs": [],
      "name": "getAllProperties",
      "outputs": [
        {
          "internalType": "address[]",
          "name": "",
          "type": "address[]"
        }
      ],
      "stateMutability": "view",
      "type": "function"
    },
    {
      "inputs": [
        {
          "internalType": "string",
          "name": "_name",
          "type": "string"
        },
        {
          "internalType": "string",
          "name": "_symbol",
          "type": "string"
        },
        {
          "internalType": "string",
          "name": "_uri",
          "type": "string"
        },
        {
          "internalType": "uint256",
          "name": "_rentPerDay",
          "type": "uint256"
        },
        {
          "internalType": "address",
          "name": "_owner",
          "type": "address"
        }
      ],
      "name": "newProperty",
      "outputs": [
        {
          "internalType": "address",
          "name": "",
          "type": "address"
        }
      ],
      "stateMutability": "nonpayable",
      "type": "function"
    },
    {
      "inputs": [
        {
          "internalType": "uint256",
          "name": "",
          "type": "uint256"
        }
      ],
      "name": "properties",
      "outputs": [
        {
          "internalType": "address",
          "name": "",
          "type": "address"
        }
      ],
      "stateMutability": "view",
      "type": "function"
    }
  ],
  "bytecode": {
    "object": "0x608060405234801561001057600080fd5b50612e0e806100206000396000f3fe60806040523480156200001157600080fd5b5060043610620000465760003560e01c8063281a6c39146200004b5780633d51402c146200007f578063f7b108081462000098575b600080fd5b620000626200005c366004620002e0565b620000af565b6040516001600160a01b0390911681526020015b60405180910390f35b620000896200017b565b604051620000769190620003c2565b62000062620000a936600462000411565b620001df565b600080878787878787604051620000c6906200020a565b620000d79695949392919062000473565b604051809103906000f080158015620000f4573d6000803e3d6000fd5b50600080546001810182558180527f290decd9548b62a8d60345a988386fc84ba6bc95484008f6362f93160ef3e5630180546001600160a01b0319166001600160a01b038481169182179092556040519394509086169290917fd457489a50e1de6e72adb28e519e086f98568308d15e878c1483c71a35e3d9eb91a3979650505050505050565b60606000805480602002602001604051908101604052809291908181526020018280548015620001d557602002820191906000526020600020905b81546001600160a01b03168152600190910190602001808311620001b6575b5050505050905090565b60008181548110620001f057600080fd5b6000918252602090912001546001600160a01b0316905081565b6128f080620004e983390190565b634e487b7160e01b600052604160045260246000fd5b600082601f8301126200024057600080fd5b813567ffffffffffffffff808211156200025e576200025e62000218565b604051601f8301601f19908116603f0116810190828211818310171562000289576200028962000218565b81604052838152866020858801011115620002a357600080fd5b836020870160208301376000602085830101528094505050505092915050565b80356001600160a01b0381168114620002db57600080fd5b919050565b60008060008060008060a08789031215620002fa57600080fd5b863567ffffffffffffffff808211156200031357600080fd5b620003218a838b016200022e565b975060208901359150808211156200033857600080fd5b620003468a838b016200022e565b965060408901359150808211156200035d57600080fd5b818901915089601f8301126200037257600080fd5b8135818111156200038257600080fd5b8a60208285010111156200039557600080fd5b60208301965080955050505060608701359150620003b660808801620002c3565b90509295509295509295565b6020808252825182820181905260009190848201906040850190845b81811015620004055783516001600160a01b031683529284019291840191600101620003de565b50909695505050505050565b6000602082840312156200042457600080fd5b5035919050565b6000815180845260005b81811015620004535760208185018101518683018201520162000435565b506000602082860101526020601f19601f83011685010191505092915050565b60a0815260006200048860a08301896200042b565b82810360208401526200049c81896200042b565b90508281036040840152858152858760208301376000602087830101526020601f19601f88011682010191505083606083015260018060a01b038316608083015297965050505050505056fe60806040523480156200001157600080fd5b50604051620028f0380380620028f0833981016040819052620000349162000288565b84846000620000448382620003d6565b506001620000538282620003d6565b505050620000706200006a620000c860201b60201c565b620000cc565b60096200007e8482620003d6565b50600a829055620000916000826200011e565b620000bd7fb19546dff01e856fb3f010c267a7b1c60363cf8a4664e21cc89c26224620214e826200011e565b5050505050620004a2565b3390565b600780546001600160a01b038381166001600160a01b0319831681179093556040519116919082907f8be0079c531659141344cd1fd0a4f28419497f9722a3daafe3b4186f6b6457e090600090a35050565b60008281526008602090815260408083206001600160a01b038516845290915290205460ff16620001bf5760008281526008602090815260408083206001600160a01b03851684529091529020805460ff191660011790556200017e3390565b6001600160a01b0316816001600160a01b0316837f2f8788117e7eff1d82e926ec794901d17c78024a50270940304540a733656f0d60405160405180910390a45b5050565b634e487b7160e01b600052604160045260246000fd5b600082601f830112620001eb57600080fd5b81516001600160401b0380821115620002085762000208620001c3565b604051601f8301601f19908116603f01168101908282118183101715620002335762000233620001c3565b816040528381526020925086838588010111156200025057600080fd5b600091505b8382101562000274578582018301518183018401529082019062000255565b600093810190920192909252949350505050565b600080600080600060a08688031215620002a157600080fd5b85516001600160401b0380821115620002b957600080fd5b620002c789838a01620001d9565b96506020880151915080821115620002de57600080fd5b620002ec89838a01620001d9565b955060408801519150808211156200030357600080fd5b506200031288828901620001d9565b60608801516080890151919550935090506001600160a01b03811681146200033957600080fd5b809150509295509295909350565b600181811c908216806200035c57607f821691505b6020821081036200037d57634e487b7160e01b600052602260045260246000fd5b50919050565b601f821115620003d157600081815260208120601f850160051c81016020861015620003ac5750805b601f850160051c820191505b81811015620003cd57828155600101620003b8565b5050505b505050565b81516001600160401b03811115620003f257620003f2620001c3565b6200040a8162000403845462000347565b8462000383565b602080601f831160018114620004425760008415620004295750858301515b600019600386901b1c1916600185901b178555620003cd565b600085815260208120601f198616915b82811015620004735788860151825594840194600190910190840162000452565b5085821015620004925787850151600019600388901b60f8161c191681555b5050505050600190811b01905550565b61243e80620004b26000396000f3fe6080604052600436106101cd5760003560e01c806370a08231116100f7578063a22cb46511610095578063d547741f11610064578063d547741f14610529578063e58378bb14610549578063e985e9c51461056b578063f2fde38b146105b457600080fd5b8063a22cb465146104a9578063ad8d5eff146104c9578063b88d4fde146104e9578063c87b56dd1461050957600080fd5b80638da5cb5b116100d15780638da5cb5b1461044157806391d148541461045f57806395d89b411461047f578063a217fddf1461049457600080fd5b806370a08231146103ec578063715018a61461040c5780638a53becf1461042157600080fd5b8063248a9ca31161016f5780633ccfd60b1161013e5780633ccfd60b1461037757806342842e0e1461038c578063570b3c6a146103ac5780636352211e146103cc57600080fd5b8063248a9ca3146102e65780632f2ff15d14610324578063358dc19c1461034457806336568abe1461035757600080fd5b8063095ea7b3116101ab578063095ea7b314610261578063114d8be114610283578063176fd3f0146102a357806323b872dd146102c657600080fd5b806301ffc9a7146101d257806306fdde0314610207578063081812fc14610229575b600080fd5b3480156101de57600080fd5b506101f26101ed366004611d16565b6105d4565b60405190151581526020015b60405180910390f35b34801561021357600080fd5b5061021c6105e5565b6040516101fe9190611d83565b34801561023557600080fd5b50610249610244366004611d96565b610677565b6040516001600160a01b0390911681526020016101fe565b34801561026d57600080fd5b5061028161027c366004611dcb565b61069e565b005b34801561028f57600080fd5b5061028161029e366004611df5565b6107b8565b3480156102af57600080fd5b506102b86107f7565b6040516101fe929190611e10565b3480156102d257600080fd5b506102816102e1366004611e32565b61088f565b3480156102f257600080fd5b50610316610301366004611d96565b60009081526008602052604090206001015490565b6040519081526020016101fe565b34801561033057600080fd5b5061028161033f366004611e6e565b6108c0565b610281610352366004611d96565b6108e5565b34801561036357600080fd5b50610281610372366004611e6e565b610a82565b34801561038357600080fd5b50610281610afc565b34801561039857600080fd5b506102816103a7366004611e32565b610ba4565b3480156103b857600080fd5b506102816103c7366004611f26565b610bbf565b3480156103d857600080fd5b506102496103e7366004611d96565b610be3565b3480156103f857600080fd5b50610316610407366004611df5565b610c43565b34801561041857600080fd5b50610281610cc9565b34801561042d57600080fd5b5061028161043c366004611d96565b610cdd565b34801561044d57600080fd5b506007546001600160a01b0316610249565b34801561046b57600080fd5b506101f261047a366004611e6e565b610cfb565b34801561048b57600080fd5b5061021c610d26565b3480156104a057600080fd5b50610316600081565b3480156104b557600080fd5b506102816104c4366004611f6f565b610d35565b3480156104d557600080fd5b506101f26104e4366004611e6e565b610d40565b3480156104f557600080fd5b50610281610504366004611fab565b610da6565b34801561051557600080fd5b5061021c610524366004611d96565b610dde565b34801561053557600080fd5b50610281610544366004611e6e565b610de9565b34801561055557600080fd5b506103166000805160206123e983398151915281565b34801561057757600080fd5b506101f2610586366004612027565b6001600160a01b03918216600090815260056020908152604080832093909416825291909152205460ff1690565b3480156105c057600080fd5b506102816105cf366004611df5565b610e0e565b60006105df82610e87565b92915050565b6060600080546105f490612051565b80601f016020809104026020016040519081016040528092919081815260200182805461062090612051565b801561066d5780601f106106425761010080835404028352916020019161066d565b820191906000526020600020905b81548152906001019060200180831161065057829003601f168201915b5050505050905090565b600061068282610eac565b506000908152600460205260409020546001600160a01b031690565b60006106a982610be3565b9050806001600160a01b0316836001600160a01b03160361071b5760405162461bcd60e51b815260206004820152602160248201527f4552433732313a20617070726f76616c20746f2063757272656e74206f776e656044820152603960f91b60648201526084015b60405180910390fd5b336001600160a01b038216148061073757506107378133610586565b6107a95760405162461bcd60e51b815260206004820152603d60248201527f4552433732313a20617070726f76652063616c6c6572206973206e6f7420746f60448201527f6b656e206f776e6572206f7220617070726f76656420666f7220616c6c0000006064820152608401610712565b6107b38383610f0b565b505050565b6000805160206123e98339815191526107d081610f79565b6107db600083610f83565b6107f36000805160206123e983398151915283610f83565b5050565b60098054819061080690612051565b80601f016020809104026020016040519081016040528092919081815260200182805461083290612051565b801561087f5780601f106108545761010080835404028352916020019161087f565b820191906000526020600020905b81548152906001019060200180831161086257829003601f168201915b5050505050908060010154905082565b6108993382611009565b6108b55760405162461bcd60e51b81526004016107129061208b565b6107b3838383611088565b6000828152600860205260409020600101546108db81610f79565b6107b38383610f83565b6000818152600b6020526040902054600160a01b900460ff16151560010361092957604051631ba6749160e01b815233600482015260248101829052604401610712565b6000610934600c5490565b9050610944600c80546001019055565b61094e33826111ec565b6109e5816009600001805461096290612051565b80601f016020809104026020016040519081016040528092919081815260200182805461098e90612051565b80156109db5780601f106109b0576101008083540402835291602001916109db565b820191906000526020600020905b8154815290600101906020018083116109be57829003601f168201915b5050505050611206565b60408051808201825233808252600160208084019182526000878152600b9091528490209251835491511515600160a01b026001600160a81b03199092166001600160a01b0391909116171790915590517fdf20c3c622ce9a1254251ce77bbabab09296abb1c4ce96f3eb9d65e2fc66286691610a76918591909182526001600160a01b0316602082015260400190565b60405180910390a15050565b6001600160a01b0381163314610af25760405162461bcd60e51b815260206004820152602f60248201527f416363657373436f6e74726f6c3a2063616e206f6e6c792072656e6f756e636560448201526e103937b632b9903337b91039b2b63360891b6064820152608401610712565b6107f382826112ca565b6000805160206123e9833981519152610b1481610f79565b604051600090339047908381818185875af1925050503d8060008114610b56576040519150601f19603f3d011682016040523d82523d6000602084013e610b5b565b606091505b50909150506001811515146107f35760405162461bcd60e51b815260206004820152600f60248201526e15da5d1a191c985dc819985a5b1959608a1b6044820152606401610712565b6107b383838360405180602001604052806000815250610da6565b6000805160206123e9833981519152610bd781610f79565b60096107b38382612126565b6000818152600260205260408120546001600160a01b0316806105df5760405162461bcd60e51b8152602060048201526018602482015277115490cdcc8c4e881a5b9d985b1a59081d1bdad95b88125160421b6044820152606401610712565b60006001600160a01b038216610cad5760405162461bcd60e51b815260206004820152602960248201527f4552433732313a2061646472657373207a65726f206973206e6f7420612076616044820152683634b21037bbb732b960b91b6064820152608401610712565b506001600160a01b031660009081526003602052604090205490565b610cd1611331565b610cdb600061138b565b565b6000805160206123e9833981519152610cf581610f79565b50600a55565b60009182526008602090815260408084206001600160a01b0393909316845291905290205460ff1690565b6060600180546105f490612051565b6107f33383836113dd565b604080518381526001600160a01b03831660208201526000917f1a777a4e69f842f69af228bdecb2e58e1ab9d68e3c8694533ddb6ff9dd243f82910160405180910390a1506000918252600b6020526040909120546001600160a01b0391821691161490565b610db03383611009565b610dcc5760405162461bcd60e51b81526004016107129061208b565b610dd8848484846114ab565b50505050565b60606105df826114de565b600082815260086020526040902060010154610e0481610f79565b6107b383836112ca565b610e16611331565b6001600160a01b038116610e7b5760405162461bcd60e51b815260206004820152602660248201527f4f776e61626c653a206e6577206f776e657220697320746865207a65726f206160448201526564647265737360d01b6064820152608401610712565b610e848161138b565b50565b60006001600160e01b03198216637965db0b60e01b14806105df57506105df826115e6565b6000818152600260205260409020546001600160a01b0316610e845760405162461bcd60e51b8152602060048201526018602482015277115490cdcc8c4e881a5b9d985b1a59081d1bdad95b88125160421b6044820152606401610712565b600081815260046020526040902080546001600160a01b0319166001600160a01b0384169081179091558190610f4082610be3565b6001600160a01b03167f8c5be1e5ebec7d5bd14f71427d1e84f3dd0314c0f7b2291e5b200ac8c7c3b92560405160405180910390a45050565b610e84813361160b565b610f8d8282610cfb565b6107f35760008281526008602090815260408083206001600160a01b03851684529091529020805460ff19166001179055610fc53390565b6001600160a01b0316816001600160a01b0316837f2f8788117e7eff1d82e926ec794901d17c78024a50270940304540a733656f0d60405160405180910390a45050565b60008061101583610be3565b9050806001600160a01b0316846001600160a01b0316148061105c57506001600160a01b0380821660009081526005602090815260408083209388168352929052205460ff165b806110805750836001600160a01b031661107584610677565b6001600160a01b0316145b949350505050565b826001600160a01b031661109b82610be3565b6001600160a01b0316146110c15760405162461bcd60e51b8152600401610712906121e6565b6001600160a01b0382166111235760405162461bcd60e51b8152602060048201526024808201527f4552433732313a207472616e7366657220746f20746865207a65726f206164646044820152637265737360e01b6064820152608401610712565b826001600160a01b031661113682610be3565b6001600160a01b03161461115c5760405162461bcd60e51b8152600401610712906121e6565b600081815260046020908152604080832080546001600160a01b03199081169091556001600160a01b0387811680865260038552838620805460001901905590871680865283862080546001019055868652600290945282852080549092168417909155905184937fddf252ad1be2c89b69c2b068fc378daa952ba7f163c4a11628f55a4df523b3ef91a4505050565b6107f3828260405180602001604052806000815250611664565b6000828152600260205260409020546001600160a01b03166112815760405162461bcd60e51b815260206004820152602e60248201527f45524337323155524953746f726167653a2055524920736574206f66206e6f6e60448201526d32bc34b9ba32b73a103a37b5b2b760911b6064820152608401610712565b60008281526006602052604090206112998282612126565b506040518281527ff8e1a15aba9398e019f0b49df1a4fde98ee17ae345cb5f6b5e2c27f5033e8ce790602001610a76565b6112d48282610cfb565b156107f35760008281526008602090815260408083206001600160a01b0385168085529252808320805460ff1916905551339285917ff6391f5c32d9c69d2a47ea670b442974b53935d1edc7fd64eb21e047a839171b9190a45050565b6007546001600160a01b03163314610cdb5760405162461bcd60e51b815260206004820181905260248201527f4f776e61626c653a2063616c6c6572206973206e6f7420746865206f776e65726044820152606401610712565b600780546001600160a01b038381166001600160a01b0319831681179093556040519116919082907f8be0079c531659141344cd1fd0a4f28419497f9722a3daafe3b4186f6b6457e090600090a35050565b816001600160a01b0316836001600160a01b03160361143e5760405162461bcd60e51b815260206004820152601960248201527f4552433732313a20617070726f766520746f2063616c6c6572000000000000006044820152606401610712565b6001600160a01b03838116600081815260056020908152604080832094871680845294825291829020805460ff191686151590811790915591519182527f17307eab39ab6107e8899845ad3d59bd9653f200f220920489ca2b5937696c31910160405180910390a3505050565b6114b6848484611088565b6114c284848484611697565b610dd85760405162461bcd60e51b81526004016107129061222b565b60606114e982610eac565b6000828152600660205260408120805461150290612051565b80601f016020809104026020016040519081016040528092919081815260200182805461152e90612051565b801561157b5780601f106115505761010080835404028352916020019161157b565b820191906000526020600020905b81548152906001019060200180831161155e57829003601f168201915b50505050509050600061159960408051602081019091526000815290565b905080516000036115ab575092915050565b8151156115dd5780826040516020016115c592919061227d565b60405160208183030381529060405292505050919050565b61108084611798565b60006001600160e01b03198216632483248360e11b14806105df57506105df8261180c565b6116158282610cfb565b6107f3576116228161185c565b61162d83602061186e565b60405160200161163e9291906122ac565b60408051601f198184030181529082905262461bcd60e51b825261071291600401611d83565b61166e8383611a0a565b61167b6000848484611697565b6107b35760405162461bcd60e51b81526004016107129061222b565b60006001600160a01b0384163b1561178d57604051630a85bd0160e11b81526001600160a01b0385169063150b7a02906116db903390899088908890600401612321565b6020604051808303816000875af1925050508015611716575060408051601f3d908101601f191682019092526117139181019061235e565b60015b611773573d808015611744576040519150601f19603f3d011682016040523d82523d6000602084013e611749565b606091505b50805160000361176b5760405162461bcd60e51b81526004016107129061222b565b805181602001fd5b6001600160e01b031916630a85bd0160e11b149050611080565b506001949350505050565b60606117a382610eac565b60006117ba60408051602081019091526000815290565b905060008151116117da5760405180602001604052806000815250611805565b806117e484611b95565b6040516020016117f592919061227d565b6040516020818303038152906040525b9392505050565b60006001600160e01b031982166380ac58cd60e01b148061183d57506001600160e01b03198216635b5e139f60e01b145b806105df57506301ffc9a760e01b6001600160e01b03198316146105df565b60606105df6001600160a01b03831660145b6060600061187d836002612391565b6118889060026123a8565b67ffffffffffffffff8111156118a0576118a0611e9a565b6040519080825280601f01601f1916602001820160405280156118ca576020820181803683370190505b509050600360fc1b816000815181106118e5576118e56123bb565b60200101906001600160f81b031916908160001a905350600f60fb1b81600181518110611914576119146123bb565b60200101906001600160f81b031916908160001a9053506000611938846002612391565b6119439060016123a8565b90505b60018111156119bb576f181899199a1a9b1b9c1cb0b131b232b360811b85600f1660108110611977576119776123bb565b1a60f81b82828151811061198d5761198d6123bb565b60200101906001600160f81b031916908160001a90535060049490941c936119b4816123d1565b9050611946565b5083156118055760405162461bcd60e51b815260206004820181905260248201527f537472696e67733a20686578206c656e67746820696e73756666696369656e746044820152606401610712565b6001600160a01b038216611a605760405162461bcd60e51b815260206004820181905260248201527f4552433732313a206d696e7420746f20746865207a65726f20616464726573736044820152606401610712565b6000818152600260205260409020546001600160a01b031615611ac55760405162461bcd60e51b815260206004820152601c60248201527f4552433732313a20746f6b656e20616c7265616479206d696e746564000000006044820152606401610712565b6000818152600260205260409020546001600160a01b031615611b2a5760405162461bcd60e51b815260206004820152601c60248201527f4552433732313a20746f6b656e20616c7265616479206d696e746564000000006044820152606401610712565b6001600160a01b038216600081815260036020908152604080832080546001019055848352600290915280822080546001600160a01b0319168417905551839291907fddf252ad1be2c89b69c2b068fc378daa952ba7f163c4a11628f55a4df523b3ef908290a45050565b60606000611ba283611c28565b600101905060008167ffffffffffffffff811115611bc257611bc2611e9a565b6040519080825280601f01601f191660200182016040528015611bec576020820181803683370190505b5090508181016020015b600019016f181899199a1a9b1b9c1cb0b131b232b360811b600a86061a8153600a8504945084611bf657509392505050565b60008072184f03e93ff9f4daa797ed6e38ed64bf6a1f0160401b8310611c675772184f03e93ff9f4daa797ed6e38ed64bf6a1f0160401b830492506040015b6d04ee2d6d415b85acef81000000008310611c93576d04ee2d6d415b85acef8100000000830492506020015b662386f26fc100008310611cb157662386f26fc10000830492506010015b6305f5e1008310611cc9576305f5e100830492506008015b6127108310611cdd57612710830492506004015b60648310611cef576064830492506002015b600a83106105df5760010192915050565b6001600160e01b031981168114610e8457600080fd5b600060208284031215611d2857600080fd5b813561180581611d00565b60005b83811015611d4e578181015183820152602001611d36565b50506000910152565b60008151808452611d6f816020860160208601611d33565b601f01601f19169290920160200192915050565b6020815260006118056020830184611d57565b600060208284031215611da857600080fd5b5035919050565b80356001600160a01b0381168114611dc657600080fd5b919050565b60008060408385031215611dde57600080fd5b611de783611daf565b946020939093013593505050565b600060208284031215611e0757600080fd5b61180582611daf565b604081526000611e236040830185611d57565b90508260208301529392505050565b600080600060608486031215611e4757600080fd5b611e5084611daf565b9250611e5e60208501611daf565b9150604084013590509250925092565b60008060408385031215611e8157600080fd5b82359150611e9160208401611daf565b90509250929050565b634e487b7160e01b600052604160045260246000fd5b600067ffffffffffffffff80841115611ecb57611ecb611e9a565b604051601f8501601f19908116603f01168101908282118183101715611ef357611ef3611e9a565b81604052809350858152868686011115611f0c57600080fd5b858560208301376000602087830101525050509392505050565b600060208284031215611f3857600080fd5b813567ffffffffffffffff811115611f4f57600080fd5b8201601f81018413611f6057600080fd5b61108084823560208401611eb0565b60008060408385031215611f8257600080fd5b611f8b83611daf565b915060208301358015158114611fa057600080fd5b809150509250929050565b60008060008060808587031215611fc157600080fd5b611fca85611daf565b9350611fd860208601611daf565b925060408501359150606085013567ffffffffffffffff811115611ffb57600080fd5b8501601f8101871361200c57600080fd5b61201b87823560208401611eb0565b91505092959194509250565b6000806040838503121561203a57600080fd5b61204383611daf565b9150611e9160208401611daf565b600181811c9082168061206557607f821691505b60208210810361208557634e487b7160e01b600052602260045260246000fd5b50919050565b6020808252602d908201527f4552433732313a2063616c6c6572206973206e6f7420746f6b656e206f776e6560408201526c1c881bdc88185c1c1c9bdd9959609a1b606082015260800190565b601f8211156107b357600081815260208120601f850160051c810160208610156120ff5750805b601f850160051c820191505b8181101561211e5782815560010161210b565b505050505050565b815167ffffffffffffffff81111561214057612140611e9a565b6121548161214e8454612051565b846120d8565b602080601f83116001811461218957600084156121715750858301515b600019600386901b1c1916600185901b17855561211e565b600085815260208120601f198616915b828110156121b857888601518255948401946001909101908401612199565b50858210156121d65787850151600019600388901b60f8161c191681555b5050505050600190811b01905550565b60208082526025908201527f4552433732313a207472616e736665722066726f6d20696e636f72726563742060408201526437bbb732b960d91b606082015260800190565b60208082526032908201527f4552433732313a207472616e7366657220746f206e6f6e20455243373231526560408201527131b2b4bb32b91034b6b83632b6b2b73a32b960711b606082015260800190565b6000835161228f818460208801611d33565b8351908301906122a3818360208801611d33565b01949350505050565b7f416363657373436f6e74726f6c3a206163636f756e74200000000000000000008152600083516122e4816017850160208801611d33565b7001034b99036b4b9b9b4b733903937b6329607d1b6017918401918201528351612315816028840160208801611d33565b01602801949350505050565b6001600160a01b038581168252841660208201526040810183905260806060820181905260009061235490830184611d57565b9695505050505050565b60006020828403121561237057600080fd5b815161180581611d00565b634e487b7160e01b600052601160045260246000fd5b80820281158282048414176105df576105df61237b565b808201808211156105df576105df61237b565b634e487b7160e01b600052603260045260246000fd5b6000816123e0576123e061237b565b50600019019056feb19546dff01e856fb3f010c267a7b1c60363cf8a4664e21cc89c26224620214ea26469706673582212202c52eb9cc989908b00e73b604c340a02dbf7a893131efc79cdcb1492ee193a4264736f6c63430008130033a2646970667358221220c30a247499e404fff58e2315377c205658c8864cdeae26c6252728d4a717f66964736f6c63430008130033",
    "linkReferences": {}
  },
  "methodIdentifiers": {
    "getAllProperties()": "3d51402c",
    "newProperty(string,string,string,uint256,address)": "281a6c39",
    "properties(uint256)": "f7b10808"
  },
  "id": 43
}