{
  "abi": [
    {
      "inputs": [
        {
          "internalType": "string",
          "name": "_name",
          "type": "string"
        },
        {
          "internalType": "string",
          "name": "_symbol",
          "type": "string"
        },
        {
          "internalType": "string",
          "name": "_uri",
          "type": "string"
        },
        {
          "internalType": "address",
          "name": "_token",
          "type": "address"
        },
        {
          "internalType": "uint256",
          "name": "_rentPerDay",
          "type": "uint256"
        },
        {
          "internalType": "address",
          "name": "_owner",
          "type": "address"
        }
      ],
      "stateMutability": "nonpayable",
      "type": "constructor"
    },
    {
      "inputs": [
        {
          "internalType": "address",
          "name": "tenant",
          "type": "address"
        },
        {
          "internalType": "uint256",
          "name": "day",
          "type": "uint256"
        },
        {
          "internalType": "uint256",
          "name": "amount",
          "type": "uint256"
        }
      ],
      "name": "BookingFailed",
      "type": "error"
    },
    {
      "inputs": [
        {
          "internalType": "uint256",
          "name": "day",
          "type": "uint256"
        },
        {
          "internalType": "address",
          "name": "tenant",
          "type": "address"
        }
      ],
      "name": "CheckInFailed",
      "type": "error"
    },
    {
      "inputs": [
        {
          "internalType": "address",
          "name": "sender",
          "type": "address"
        },
        {
          "internalType": "uint256",
          "name": "amount",
          "type": "uint256"
        }
      ],
      "name": "GrantAllowanceFailed",
      "type": "error"
    },
    {
      "inputs": [
        {
          "internalType": "address",
          "name": "owner",
          "type": "address"
        },
        {
          "internalType": "uint256",
          "name": "amount",
          "type": "uint256"
        }
      ],
      "name": "WithdrawFailed",
      "type": "error"
    },
    {
      "anonymous": false,
      "inputs": [
        {
          "indexed": true,
          "internalType": "address",
          "name": "owner",
          "type": "address"
        },
        {
          "indexed": true,
          "internalType": "address",
          "name": "approved",
          "type": "address"
        },
        {
          "indexed": true,
          "internalType": "uint256",
          "name": "tokenId",
          "type": "uint256"
        }
      ],
      "name": "Approval",
      "type": "event"
    },
    {
      "anonymous": false,
      "inputs": [
        {
          "indexed": true,
          "internalType": "address",
          "name": "owner",
          "type": "address"
        },
        {
          "indexed": true,
          "internalType": "address",
          "name": "operator",
          "type": "address"
        },
        {
          "indexed": false,
          "internalType": "bool",
          "name": "approved",
          "type": "bool"
        }
      ],
      "name": "ApprovalForAll",
      "type": "event"
    },
    {
      "anonymous": false,
      "inputs": [
        {
          "indexed": false,
          "internalType": "uint256",
          "name": "_fromTokenId",
          "type": "uint256"
        },
        {
          "indexed": false,
          "internalType": "uint256",
          "name": "_toTokenId",
          "type": "uint256"
        }
      ],
      "name": "BatchMetadataUpdate",
      "type": "event"
    },
    {
      "anonymous": false,
      "inputs": [
        {
          "indexed": false,
          "internalType": "uint256",
          "name": "day",
          "type": "uint256"
        },
        {
          "indexed": false,
          "internalType": "address",
          "name": "tenant",
          "type": "address"
        }
      ],
      "name": "CheckIn",
      "type": "event"
    },
    {
      "anonymous": false,
      "inputs": [
        {
          "indexed": false,
          "internalType": "uint256",
          "name": "_tokenId",
          "type": "uint256"
        }
      ],
      "name": "MetadataUpdate",
      "type": "event"
    },
    {
      "anonymous": false,
      "inputs": [
        {
          "indexed": false,
          "internalType": "uint256",
          "name": "day",
          "type": "uint256"
        },
        {
          "indexed": false,
          "internalType": "address",
          "name": "tenant",
          "type": "address"
        }
      ],
      "name": "NewBooking",
      "type": "event"
    },
    {
      "anonymous": false,
      "inputs": [
        {
          "indexed": true,
          "internalType": "address",
          "name": "previousOwner",
          "type": "address"
        },
        {
          "indexed": true,
          "internalType": "address",
          "name": "newOwner",
          "type": "address"
        }
      ],
      "name": "OwnershipTransferred",
      "type": "event"
    },
    {
      "anonymous": false,
      "inputs": [
        {
          "indexed": true,
          "internalType": "bytes32",
          "name": "role",
          "type": "bytes32"
        },
        {
          "indexed": true,
          "internalType": "bytes32",
          "name": "previousAdminRole",
          "type": "bytes32"
        },
        {
          "indexed": true,
          "internalType": "bytes32",
          "name": "newAdminRole",
          "type": "bytes32"
        }
      ],
      "name": "RoleAdminChanged",
      "type": "event"
    },
    {
      "anonymous": false,
      "inputs": [
        {
          "indexed": true,
          "internalType": "bytes32",
          "name": "role",
          "type": "bytes32"
        },
        {
          "indexed": true,
          "internalType": "address",
          "name": "account",
          "type": "address"
        },
        {
          "indexed": true,
          "internalType": "address",
          "name": "sender",
          "type": "address"
        }
      ],
      "name": "RoleGranted",
      "type": "event"
    },
    {
      "anonymous": false,
      "inputs": [
        {
          "indexed": true,
          "internalType": "bytes32",
          "name": "role",
          "type": "bytes32"
        },
        {
          "indexed": true,
          "internalType": "address",
          "name": "account",
          "type": "address"
        },
        {
          "indexed": true,
          "internalType": "address",
          "name": "sender",
          "type": "address"
        }
      ],
      "name": "RoleRevoked",
      "type": "event"
    },
    {
      "anonymous": false,
      "inputs": [
        {
          "indexed": true,
          "internalType": "address",
          "name": "from",
          "type": "address"
        },
        {
          "indexed": true,
          "internalType": "address",
          "name": "to",
          "type": "address"
        },
        {
          "indexed": true,
          "internalType": "uint256",
          "name": "tokenId",
          "type": "uint256"
        }
      ],
      "name": "Transfer",
      "type": "event"
    },
    {
      "inputs": [],
      "name": "DEFAULT_ADMIN_ROLE",
      "outputs": [
        {
          "internalType": "bytes32",
          "name": "",
          "type": "bytes32"
        }
      ],
      "stateMutability": "view",
      "type": "function"
    },
    {
      "inputs": [],
      "name": "OWNER_ROLE",
      "outputs": [
        {
          "internalType": "bytes32",
          "name": "",
          "type": "bytes32"
        }
      ],
      "stateMutability": "view",
      "type": "function"
    },
    {
      "inputs": [
        {
          "internalType": "address",
          "name": "_newOwner",
          "type": "address"
        }
      ],
      "name": "addNewOwner",
      "outputs": [],
      "stateMutability": "nonpayable",
      "type": "function"
    },
    {
      "inputs": [
        {
          "internalType": "address",
          "name": "to",
          "type": "address"
        },
        {
          "internalType": "uint256",
          "name": "tokenId",
          "type": "uint256"
        }
      ],
      "name": "approve",
      "outputs": [],
      "stateMutability": "nonpayable",
      "type": "function"
    },
    {
      "inputs": [
        {
          "internalType": "address",
          "name": "owner",
          "type": "address"
        }
      ],
      "name": "balanceOf",
      "outputs": [
        {
          "internalType": "uint256",
          "name": "",
          "type": "uint256"
        }
      ],
      "stateMutability": "view",
      "type": "function"
    },
    {
      "inputs": [
        {
          "internalType": "uint256",
          "name": "_day",
          "type": "uint256"
        },
        {
          "internalType": "uint256",
          "name": "_amount",
          "type": "uint256"
        }
      ],
      "name": "booking",
      "outputs": [],
      "stateMutability": "nonpayable",
      "type": "function"
    },
    {
      "inputs": [
        {
          "internalType": "uint256",
          "name": "day",
          "type": "uint256"
        },
        {
          "internalType": "address",
          "name": "_tenant",
          "type": "address"
        }
      ],
      "name": "checkIn",
      "outputs": [
        {
          "internalType": "bool",
          "name": "",
          "type": "bool"
        }
      ],
      "stateMutability": "nonpayable",
      "type": "function"
    },
    {
      "inputs": [
        {
          "internalType": "uint256",
          "name": "tokenId",
          "type": "uint256"
        }
      ],
      "name": "getApproved",
      "outputs": [
        {
          "internalType": "address",
          "name": "",
          "type": "address"
        }
      ],
      "stateMutability": "view",
      "type": "function"
    },
    {
      "inputs": [
        {
          "internalType": "bytes32",
          "name": "role",
          "type": "bytes32"
        }
      ],
      "name": "getRoleAdmin",
      "outputs": [
        {
          "internalType": "bytes32",
          "name": "",
          "type": "bytes32"
        }
      ],
      "stateMutability": "view",
      "type": "function"
    },
    {
      "inputs": [
        {
          "internalType": "bytes32",
          "name": "role",
          "type": "bytes32"
        },
        {
          "internalType": "address",
          "name": "account",
          "type": "address"
        }
      ],
      "name": "grantRole",
      "outputs": [],
      "stateMutability": "nonpayable",
      "type": "function"
    },
    {
      "inputs": [
        {
          "internalType": "bytes32",
          "name": "role",
          "type": "bytes32"
        },
        {
          "internalType": "address",
          "name": "account",
          "type": "address"
        }
      ],
      "name": "hasRole",
      "outputs": [
        {
          "internalType": "bool",
          "name": "",
          "type": "bool"
        }
      ],
      "stateMutability": "view",
      "type": "function"
    },
    {
      "inputs": [
        {
          "internalType": "address",
          "name": "owner",
          "type": "address"
        },
        {
          "internalType": "address",
          "name": "operator",
          "type": "address"
        }
      ],
      "name": "isApprovedForAll",
      "outputs": [
        {
          "internalType": "bool",
          "name": "",
          "type": "bool"
        }
      ],
      "stateMutability": "view",
      "type": "function"
    },
    {
      "inputs": [],
      "name": "name",
      "outputs": [
        {
          "internalType": "string",
          "name": "",
          "type": "string"
        }
      ],
      "stateMutability": "view",
      "type": "function"
    },
    {
      "inputs": [],
      "name": "owner",
      "outputs": [
        {
          "internalType": "address",
          "name": "",
          "type": "address"
        }
      ],
      "stateMutability": "view",
      "type": "function"
    },
    {
      "inputs": [
        {
          "internalType": "uint256",
          "name": "tokenId",
          "type": "uint256"
        }
      ],
      "name": "ownerOf",
      "outputs": [
        {
          "internalType": "address",
          "name": "",
          "type": "address"
        }
      ],
      "stateMutability": "view",
      "type": "function"
    },
    {
      "inputs": [],
      "name": "property",
      "outputs": [
        {
          "internalType": "string",
          "name": "uri",
          "type": "string"
        },
        {
          "internalType": "address",
          "name": "token",
          "type": "address"
        },
        {
          "internalType": "uint256",
          "name": "rentPerDay",
          "type": "uint256"
        }
      ],
      "stateMutability": "view",
      "type": "function"
    },
    {
      "inputs": [],
      "name": "renounceOwnership",
      "outputs": [],
      "stateMutability": "nonpayable",
      "type": "function"
    },
    {
      "inputs": [
        {
          "internalType": "bytes32",
          "name": "role",
          "type": "bytes32"
        },
        {
          "internalType": "address",
          "name": "account",
          "type": "address"
        }
      ],
      "name": "renounceRole",
      "outputs": [],
      "stateMutability": "nonpayable",
      "type": "function"
    },
    {
      "inputs": [
        {
          "internalType": "bytes32",
          "name": "role",
          "type": "bytes32"
        },
        {
          "internalType": "address",
          "name": "account",
          "type": "address"
        }
      ],
      "name": "revokeRole",
      "outputs": [],
      "stateMutability": "nonpayable",
      "type": "function"
    },
    {
      "inputs": [
        {
          "internalType": "address",
          "name": "from",
          "type": "address"
        },
        {
          "internalType": "address",
          "name": "to",
          "type": "address"
        },
        {
          "internalType": "uint256",
          "name": "tokenId",
          "type": "uint256"
        }
      ],
      "name": "safeTransferFrom",
      "outputs": [],
      "stateMutability": "nonpayable",
      "type": "function"
    },
    {
      "inputs": [
        {
          "internalType": "address",
          "name": "from",
          "type": "address"
        },
        {
          "internalType": "address",
          "name": "to",
          "type": "address"
        },
        {
          "internalType": "uint256",
          "name": "tokenId",
          "type": "uint256"
        },
        {
          "internalType": "bytes",
          "name": "data",
          "type": "bytes"
        }
      ],
      "name": "safeTransferFrom",
      "outputs": [],
      "stateMutability": "nonpayable",
      "type": "function"
    },
    {
      "inputs": [
        {
          "internalType": "address",
          "name": "operator",
          "type": "address"
        },
        {
          "internalType": "bool",
          "name": "approved",
          "type": "bool"
        }
      ],
      "name": "setApprovalForAll",
      "outputs": [],
      "stateMutability": "nonpayable",
      "type": "function"
    },
    {
      "inputs": [
        {
          "internalType": "bytes4",
          "name": "interfaceId",
          "type": "bytes4"
        }
      ],
      "name": "supportsInterface",
      "outputs": [
        {
          "internalType": "bool",
          "name": "",
          "type": "bool"
        }
      ],
      "stateMutability": "view",
      "type": "function"
    },
    {
      "inputs": [],
      "name": "symbol",
      "outputs": [
        {
          "internalType": "string",
          "name": "",
          "type": "string"
        }
      ],
      "stateMutability": "view",
      "type": "function"
    },
    {
      "inputs": [
        {
          "internalType": "uint256",
          "name": "tokenId",
          "type": "uint256"
        }
      ],
      "name": "tokenURI",
      "outputs": [
        {
          "internalType": "string",
          "name": "",
          "type": "string"
        }
      ],
      "stateMutability": "view",
      "type": "function"
    },
    {
      "inputs": [
        {
          "internalType": "address",
          "name": "from",
          "type": "address"
        },
        {
          "internalType": "address",
          "name": "to",
          "type": "address"
        },
        {
          "internalType": "uint256",
          "name": "tokenId",
          "type": "uint256"
        }
      ],
      "name": "transferFrom",
      "outputs": [],
      "stateMutability": "nonpayable",
      "type": "function"
    },
    {
      "inputs": [
        {
          "internalType": "address",
          "name": "newOwner",
          "type": "address"
        }
      ],
      "name": "transferOwnership",
      "outputs": [],
      "stateMutability": "nonpayable",
      "type": "function"
    },
    {
      "inputs": [
        {
          "internalType": "uint256",
          "name": "_rentPerDay",
          "type": "uint256"
        }
      ],
      "name": "updateRentPerDay",
      "outputs": [],
      "stateMutability": "nonpayable",
      "type": "function"
    },
    {
      "inputs": [
        {
          "internalType": "string",
          "name": "_uri",
          "type": "string"
        }
      ],
      "name": "updateUri",
      "outputs": [],
      "stateMutability": "nonpayable",
      "type": "function"
    },
    {
      "inputs": [],
      "name": "withdraw",
      "outputs": [],
      "stateMutability": "nonpayable",
      "type": "function"
    }
  ],
  "bytecode": {
    "object": "0x60806040523480156200001157600080fd5b5060405162002985380380620029858339810160408190526200003491620002c1565b858560006200004483826200040f565b5060016200005382826200040f565b505050620000706200006a620000e460201b60201c565b620000e8565b60096200007e85826200040f565b50600a80546001600160a01b0319166001600160a01b038516179055600b829055620000ac6000826200013a565b620000d87fb19546dff01e856fb3f010c267a7b1c60363cf8a4664e21cc89c26224620214e826200013a565b505050505050620004db565b3390565b600780546001600160a01b038381166001600160a01b0319831681179093556040519116919082907f8be0079c531659141344cd1fd0a4f28419497f9722a3daafe3b4186f6b6457e090600090a35050565b60008281526008602090815260408083206001600160a01b038516845290915290205460ff16620001db5760008281526008602090815260408083206001600160a01b03851684529091529020805460ff191660011790556200019a3390565b6001600160a01b0316816001600160a01b0316837f2f8788117e7eff1d82e926ec794901d17c78024a50270940304540a733656f0d60405160405180910390a45b5050565b634e487b7160e01b600052604160045260246000fd5b600082601f8301126200020757600080fd5b81516001600160401b0380821115620002245762000224620001df565b604051601f8301601f19908116603f011681019082821181831017156200024f576200024f620001df565b816040528381526020925086838588010111156200026c57600080fd5b600091505b8382101562000290578582018301518183018401529082019062000271565b600093810190920192909252949350505050565b80516001600160a01b0381168114620002bc57600080fd5b919050565b60008060008060008060c08789031215620002db57600080fd5b86516001600160401b0380821115620002f357600080fd5b620003018a838b01620001f5565b975060208901519150808211156200031857600080fd5b620003268a838b01620001f5565b965060408901519150808211156200033d57600080fd5b506200034c89828a01620001f5565b9450506200035d60608801620002a4565b9250608087015191506200037460a08801620002a4565b90509295509295509295565b600181811c908216806200039557607f821691505b602082108103620003b657634e487b7160e01b600052602260045260246000fd5b50919050565b601f8211156200040a57600081815260208120601f850160051c81016020861015620003e55750805b601f850160051c820191505b818110156200040657828155600101620003f1565b5050505b505050565b81516001600160401b038111156200042b576200042b620001df565b62000443816200043c845462000380565b84620003bc565b602080601f8311600181146200047b5760008415620004625750858301515b600019600386901b1c1916600185901b17855562000406565b600085815260208120601f198616915b82811015620004ac578886015182559484019460019091019084016200048b565b5085821015620004cb5787850151600019600388901b60f8161c191681555b5050505050600190811b01905550565b61249a80620004eb6000396000f3fe608060405234801561001057600080fd5b50600436106101da5760003560e01c806370a0823111610104578063a22cb465116100a2578063d547741f11610071578063d547741f146103f2578063e58378bb14610405578063e985e9c51461041a578063f2fde38b1461045657600080fd5b8063a22cb465146103a6578063ad8d5eff146103b9578063b88d4fde146103cc578063c87b56dd146103df57600080fd5b80638da5cb5b116100de5780638da5cb5b1461037257806391d148541461038357806395d89b4114610396578063a217fddf1461039e57600080fd5b806370a0823114610344578063715018a6146103575780638a53becf1461035f57600080fd5b806323b872dd1161017c5780633ccfd60b1161014b5780633ccfd60b1461030357806342842e0e1461030b578063570b3c6a1461031e5780636352211e1461033157600080fd5b806323b872dd14610299578063248a9ca3146102ac5780632f2ff15d146102dd57806336568abe146102f057600080fd5b8063095ea7b3116101b8578063095ea7b314610247578063114d8be11461025c578063176fd3f01461026f5780631d6c96561461028657600080fd5b806301ffc9a7146101df57806306fdde0314610207578063081812fc1461021c575b600080fd5b6101f26101ed366004611d05565b610469565b60405190151581526020015b60405180910390f35b61020f61047a565b6040516101fe9190611d72565b61022f61022a366004611d85565b61050c565b6040516001600160a01b0390911681526020016101fe565b61025a610255366004611dba565b610533565b005b61025a61026a366004611de4565b61064d565b61027761068c565b6040516101fe93929190611dff565b61025a610294366004611e2d565b610734565b61025a6102a7366004611e4f565b610993565b6102cf6102ba366004611d85565b60009081526008602052604090206001015490565b6040519081526020016101fe565b61025a6102eb366004611e8b565b6109c4565b61025a6102fe366004611e8b565b6109e9565b61025a610a63565b61025a610319366004611e4f565b610b8c565b61025a61032c366004611f43565b610ba7565b61022f61033f366004611d85565b610bcb565b6102cf610352366004611de4565b610c2b565b61025a610cb1565b61025a61036d366004611d85565b610cc5565b6007546001600160a01b031661022f565b6101f2610391366004611e8b565b610ce3565b61020f610d0e565b6102cf600081565b61025a6103b4366004611f9a565b610d1d565b6101f26103c7366004611e8b565b610d28565b61025a6103da366004611fd1565b610d8e565b61020f6103ed366004611d85565b610dc6565b61025a610400366004611e8b565b610dd1565b6102cf60008051602061244583398151915281565b6101f261042836600461204d565b6001600160a01b03918216600090815260056020908152604080832093909416825291909152205460ff1690565b61025a610464366004611de4565b610df6565b600061047482610e6f565b92915050565b60606000805461048990612077565b80601f01602080910402602001604051908101604052809291908181526020018280546104b590612077565b80156105025780601f106104d757610100808354040283529160200191610502565b820191906000526020600020905b8154815290600101906020018083116104e557829003601f168201915b5050505050905090565b600061051782610e94565b506000908152600460205260409020546001600160a01b031690565b600061053e82610bcb565b9050806001600160a01b0316836001600160a01b0316036105b05760405162461bcd60e51b815260206004820152602160248201527f4552433732313a20617070726f76616c20746f2063757272656e74206f776e656044820152603960f91b60648201526084015b60405180910390fd5b336001600160a01b03821614806105cc57506105cc8133610428565b61063e5760405162461bcd60e51b815260206004820152603d60248201527f4552433732313a20617070726f76652063616c6c6572206973206e6f7420746f60448201527f6b656e206f776e6572206f7220617070726f76656420666f7220616c6c00000060648201526084016105a7565b6106488383610ef3565b505050565b60008051602061244583398151915261066581610f61565b610670600083610f6b565b61068860008051602061244583398151915283610f6b565b5050565b60098054819061069b90612077565b80601f01602080910402602001604051908101604052809291908181526020018280546106c790612077565b80156107145780601f106106e957610100808354040283529160200191610714565b820191906000526020600020905b8154815290600101906020018083116106f757829003601f168201915b50505050600183015460029093015491926001600160a01b031691905083565b6000828152600c6020526040902054600160a01b900460ff1615156001148061075e5750600b5481105b1561078c57604051630da1a4fb60e31b815233600482015260248101839052604481018290526064016105a7565b600a546040516323b872dd60e01b8152336004820152306024820152604481018390526000916001600160a01b0316906323b872dd906064016020604051808303816000875af11580156107e4573d6000803e3d6000fd5b505050506040513d601f19601f8201168201806040525081019061080891906120b1565b90508061083857604051630da1a4fb60e31b815233600482015260248101849052604481018390526064016105a7565b6000610843600d5490565b9050610853600d80546001019055565b61085d3382610ff1565b6108f4816009600001805461087190612077565b80601f016020809104026020016040519081016040528092919081815260200182805461089d90612077565b80156108ea5780601f106108bf576101008083540402835291602001916108ea565b820191906000526020600020905b8154815290600101906020018083116108cd57829003601f168201915b505050505061100b565b60408051808201825233808252600160208084019182526000898152600c9091528490209251835491511515600160a01b026001600160a81b03199092166001600160a01b0391909116171790915590517fdf20c3c622ce9a1254251ce77bbabab09296abb1c4ce96f3eb9d65e2fc66286691610985918791909182526001600160a01b0316602082015260400190565b60405180910390a150505050565b61099d33826110d6565b6109b95760405162461bcd60e51b81526004016105a7906120ce565b610648838383611155565b6000828152600860205260409020600101546109df81610f61565b6106488383610f6b565b6001600160a01b0381163314610a595760405162461bcd60e51b815260206004820152602f60248201527f416363657373436f6e74726f6c3a2063616e206f6e6c792072656e6f756e636560448201526e103937b632b9903337b91039b2b63360891b60648201526084016105a7565b61068882826112b9565b600080516020612445833981519152610a7b81610f61565b600a546040516370a0823160e01b81523060048201526000916001600160a01b0316906370a0823190602401602060405180830381865afa158015610ac4573d6000803e3d6000fd5b505050506040513d601f19601f82011682018060405250810190610ae8919061211b565b600a5460405163a9059cbb60e01b8152336004820152602481018390529192506000916001600160a01b039091169063a9059cbb906044016020604051808303816000875af1158015610b3f573d6000803e3d6000fd5b505050506040513d601f19601f82011682018060405250810190610b6391906120b1565b905080610648576040516351134c8960e11b8152336004820152602481018390526044016105a7565b61064883838360405180602001604052806000815250610d8e565b600080516020612445833981519152610bbf81610f61565b60096106488382612182565b6000818152600260205260408120546001600160a01b0316806104745760405162461bcd60e51b8152602060048201526018602482015277115490cdcc8c4e881a5b9d985b1a59081d1bdad95b88125160421b60448201526064016105a7565b60006001600160a01b038216610c955760405162461bcd60e51b815260206004820152602960248201527f4552433732313a2061646472657373207a65726f206973206e6f7420612076616044820152683634b21037bbb732b960b91b60648201526084016105a7565b506001600160a01b031660009081526003602052604090205490565b610cb9611320565b610cc3600061137a565b565b600080516020612445833981519152610cdd81610f61565b50600b55565b60009182526008602090815260408084206001600160a01b0393909316845291905290205460ff1690565b60606001805461048990612077565b6106883383836113cc565b604080518381526001600160a01b03831660208201526000917f1a777a4e69f842f69af228bdecb2e58e1ab9d68e3c8694533ddb6ff9dd243f82910160405180910390a1506000918252600c6020526040909120546001600160a01b0391821691161490565b610d9833836110d6565b610db45760405162461bcd60e51b81526004016105a7906120ce565b610dc08484848461149a565b50505050565b6060610474826114cd565b600082815260086020526040902060010154610dec81610f61565b61064883836112b9565b610dfe611320565b6001600160a01b038116610e635760405162461bcd60e51b815260206004820152602660248201527f4f776e61626c653a206e6577206f776e657220697320746865207a65726f206160448201526564647265737360d01b60648201526084016105a7565b610e6c8161137a565b50565b60006001600160e01b03198216637965db0b60e01b14806104745750610474826115d5565b6000818152600260205260409020546001600160a01b0316610e6c5760405162461bcd60e51b8152602060048201526018602482015277115490cdcc8c4e881a5b9d985b1a59081d1bdad95b88125160421b60448201526064016105a7565b600081815260046020526040902080546001600160a01b0319166001600160a01b0384169081179091558190610f2882610bcb565b6001600160a01b03167f8c5be1e5ebec7d5bd14f71427d1e84f3dd0314c0f7b2291e5b200ac8c7c3b92560405160405180910390a45050565b610e6c81336115fa565b610f758282610ce3565b6106885760008281526008602090815260408083206001600160a01b03851684529091529020805460ff19166001179055610fad3390565b6001600160a01b0316816001600160a01b0316837f2f8788117e7eff1d82e926ec794901d17c78024a50270940304540a733656f0d60405160405180910390a45050565b610688828260405180602001604052806000815250611653565b6000828152600260205260409020546001600160a01b03166110865760405162461bcd60e51b815260206004820152602e60248201527f45524337323155524953746f726167653a2055524920736574206f66206e6f6e60448201526d32bc34b9ba32b73a103a37b5b2b760911b60648201526084016105a7565b600082815260066020526040902061109e8282612182565b506040518281527ff8e1a15aba9398e019f0b49df1a4fde98ee17ae345cb5f6b5e2c27f5033e8ce79060200160405180910390a15050565b6000806110e283610bcb565b9050806001600160a01b0316846001600160a01b0316148061112957506001600160a01b0380821660009081526005602090815260408083209388168352929052205460ff165b8061114d5750836001600160a01b03166111428461050c565b6001600160a01b0316145b949350505050565b826001600160a01b031661116882610bcb565b6001600160a01b03161461118e5760405162461bcd60e51b81526004016105a790612242565b6001600160a01b0382166111f05760405162461bcd60e51b8152602060048201526024808201527f4552433732313a207472616e7366657220746f20746865207a65726f206164646044820152637265737360e01b60648201526084016105a7565b826001600160a01b031661120382610bcb565b6001600160a01b0316146112295760405162461bcd60e51b81526004016105a790612242565b600081815260046020908152604080832080546001600160a01b03199081169091556001600160a01b0387811680865260038552838620805460001901905590871680865283862080546001019055868652600290945282852080549092168417909155905184937fddf252ad1be2c89b69c2b068fc378daa952ba7f163c4a11628f55a4df523b3ef91a4505050565b6112c38282610ce3565b156106885760008281526008602090815260408083206001600160a01b0385168085529252808320805460ff1916905551339285917ff6391f5c32d9c69d2a47ea670b442974b53935d1edc7fd64eb21e047a839171b9190a45050565b6007546001600160a01b03163314610cc35760405162461bcd60e51b815260206004820181905260248201527f4f776e61626c653a2063616c6c6572206973206e6f7420746865206f776e657260448201526064016105a7565b600780546001600160a01b038381166001600160a01b0319831681179093556040519116919082907f8be0079c531659141344cd1fd0a4f28419497f9722a3daafe3b4186f6b6457e090600090a35050565b816001600160a01b0316836001600160a01b03160361142d5760405162461bcd60e51b815260206004820152601960248201527f4552433732313a20617070726f766520746f2063616c6c65720000000000000060448201526064016105a7565b6001600160a01b03838116600081815260056020908152604080832094871680845294825291829020805460ff191686151590811790915591519182527f17307eab39ab6107e8899845ad3d59bd9653f200f220920489ca2b5937696c31910160405180910390a3505050565b6114a5848484611155565b6114b184848484611686565b610dc05760405162461bcd60e51b81526004016105a790612287565b60606114d882610e94565b600082815260066020526040812080546114f190612077565b80601f016020809104026020016040519081016040528092919081815260200182805461151d90612077565b801561156a5780601f1061153f5761010080835404028352916020019161156a565b820191906000526020600020905b81548152906001019060200180831161154d57829003601f168201915b50505050509050600061158860408051602081019091526000815290565b9050805160000361159a575092915050565b8151156115cc5780826040516020016115b49291906122d9565b60405160208183030381529060405292505050919050565b61114d84611787565b60006001600160e01b03198216632483248360e11b14806104745750610474826117fb565b6116048282610ce3565b610688576116118161184b565b61161c83602061185d565b60405160200161162d929190612308565b60408051601f198184030181529082905262461bcd60e51b82526105a791600401611d72565b61165d83836119f9565b61166a6000848484611686565b6106485760405162461bcd60e51b81526004016105a790612287565b60006001600160a01b0384163b1561177c57604051630a85bd0160e11b81526001600160a01b0385169063150b7a02906116ca90339089908890889060040161237d565b6020604051808303816000875af1925050508015611705575060408051601f3d908101601f19168201909252611702918101906123ba565b60015b611762573d808015611733576040519150601f19603f3d011682016040523d82523d6000602084013e611738565b606091505b50805160000361175a5760405162461bcd60e51b81526004016105a790612287565b805181602001fd5b6001600160e01b031916630a85bd0160e11b14905061114d565b506001949350505050565b606061179282610e94565b60006117a960408051602081019091526000815290565b905060008151116117c957604051806020016040528060008152506117f4565b806117d384611b84565b6040516020016117e49291906122d9565b6040516020818303038152906040525b9392505050565b60006001600160e01b031982166380ac58cd60e01b148061182c57506001600160e01b03198216635b5e139f60e01b145b8061047457506301ffc9a760e01b6001600160e01b0319831614610474565b60606104746001600160a01b03831660145b6060600061186c8360026123ed565b611877906002612404565b67ffffffffffffffff81111561188f5761188f611eb7565b6040519080825280601f01601f1916602001820160405280156118b9576020820181803683370190505b509050600360fc1b816000815181106118d4576118d4612417565b60200101906001600160f81b031916908160001a905350600f60fb1b8160018151811061190357611903612417565b60200101906001600160f81b031916908160001a90535060006119278460026123ed565b611932906001612404565b90505b60018111156119aa576f181899199a1a9b1b9c1cb0b131b232b360811b85600f166010811061196657611966612417565b1a60f81b82828151811061197c5761197c612417565b60200101906001600160f81b031916908160001a90535060049490941c936119a38161242d565b9050611935565b5083156117f45760405162461bcd60e51b815260206004820181905260248201527f537472696e67733a20686578206c656e67746820696e73756666696369656e7460448201526064016105a7565b6001600160a01b038216611a4f5760405162461bcd60e51b815260206004820181905260248201527f4552433732313a206d696e7420746f20746865207a65726f206164647265737360448201526064016105a7565b6000818152600260205260409020546001600160a01b031615611ab45760405162461bcd60e51b815260206004820152601c60248201527f4552433732313a20746f6b656e20616c7265616479206d696e7465640000000060448201526064016105a7565b6000818152600260205260409020546001600160a01b031615611b195760405162461bcd60e51b815260206004820152601c60248201527f4552433732313a20746f6b656e20616c7265616479206d696e7465640000000060448201526064016105a7565b6001600160a01b038216600081815260036020908152604080832080546001019055848352600290915280822080546001600160a01b0319168417905551839291907fddf252ad1be2c89b69c2b068fc378daa952ba7f163c4a11628f55a4df523b3ef908290a45050565b60606000611b9183611c17565b600101905060008167ffffffffffffffff811115611bb157611bb1611eb7565b6040519080825280601f01601f191660200182016040528015611bdb576020820181803683370190505b5090508181016020015b600019016f181899199a1a9b1b9c1cb0b131b232b360811b600a86061a8153600a8504945084611be557509392505050565b60008072184f03e93ff9f4daa797ed6e38ed64bf6a1f0160401b8310611c565772184f03e93ff9f4daa797ed6e38ed64bf6a1f0160401b830492506040015b6d04ee2d6d415b85acef81000000008310611c82576d04ee2d6d415b85acef8100000000830492506020015b662386f26fc100008310611ca057662386f26fc10000830492506010015b6305f5e1008310611cb8576305f5e100830492506008015b6127108310611ccc57612710830492506004015b60648310611cde576064830492506002015b600a83106104745760010192915050565b6001600160e01b031981168114610e6c57600080fd5b600060208284031215611d1757600080fd5b81356117f481611cef565b60005b83811015611d3d578181015183820152602001611d25565b50506000910152565b60008151808452611d5e816020860160208601611d22565b601f01601f19169290920160200192915050565b6020815260006117f46020830184611d46565b600060208284031215611d9757600080fd5b5035919050565b80356001600160a01b0381168114611db557600080fd5b919050565b60008060408385031215611dcd57600080fd5b611dd683611d9e565b946020939093013593505050565b600060208284031215611df657600080fd5b6117f482611d9e565b606081526000611e126060830186611d46565b6001600160a01b039490941660208301525060400152919050565b60008060408385031215611e4057600080fd5b50508035926020909101359150565b600080600060608486031215611e6457600080fd5b611e6d84611d9e565b9250611e7b60208501611d9e565b9150604084013590509250925092565b60008060408385031215611e9e57600080fd5b82359150611eae60208401611d9e565b90509250929050565b634e487b7160e01b600052604160045260246000fd5b600067ffffffffffffffff80841115611ee857611ee8611eb7565b604051601f8501601f19908116603f01168101908282118183101715611f1057611f10611eb7565b81604052809350858152868686011115611f2957600080fd5b858560208301376000602087830101525050509392505050565b600060208284031215611f5557600080fd5b813567ffffffffffffffff811115611f6c57600080fd5b8201601f81018413611f7d57600080fd5b61114d84823560208401611ecd565b8015158114610e6c57600080fd5b60008060408385031215611fad57600080fd5b611fb683611d9e565b91506020830135611fc681611f8c565b809150509250929050565b60008060008060808587031215611fe757600080fd5b611ff085611d9e565b9350611ffe60208601611d9e565b925060408501359150606085013567ffffffffffffffff81111561202157600080fd5b8501601f8101871361203257600080fd5b61204187823560208401611ecd565b91505092959194509250565b6000806040838503121561206057600080fd5b61206983611d9e565b9150611eae60208401611d9e565b600181811c9082168061208b57607f821691505b6020821081036120ab57634e487b7160e01b600052602260045260246000fd5b50919050565b6000602082840312156120c357600080fd5b81516117f481611f8c565b6020808252602d908201527f4552433732313a2063616c6c6572206973206e6f7420746f6b656e206f776e6560408201526c1c881bdc88185c1c1c9bdd9959609a1b606082015260800190565b60006020828403121561212d57600080fd5b5051919050565b601f82111561064857600081815260208120601f850160051c8101602086101561215b5750805b601f850160051c820191505b8181101561217a57828155600101612167565b505050505050565b815167ffffffffffffffff81111561219c5761219c611eb7565b6121b0816121aa8454612077565b84612134565b602080601f8311600181146121e557600084156121cd5750858301515b600019600386901b1c1916600185901b17855561217a565b600085815260208120601f198616915b82811015612214578886015182559484019460019091019084016121f5565b50858210156122325787850151600019600388901b60f8161c191681555b5050505050600190811b01905550565b60208082526025908201527f4552433732313a207472616e736665722066726f6d20696e636f72726563742060408201526437bbb732b960d91b606082015260800190565b60208082526032908201527f4552433732313a207472616e7366657220746f206e6f6e20455243373231526560408201527131b2b4bb32b91034b6b83632b6b2b73a32b960711b606082015260800190565b600083516122eb818460208801611d22565b8351908301906122ff818360208801611d22565b01949350505050565b7f416363657373436f6e74726f6c3a206163636f756e7420000000000000000000815260008351612340816017850160208801611d22565b7001034b99036b4b9b9b4b733903937b6329607d1b6017918401918201528351612371816028840160208801611d22565b01602801949350505050565b6001600160a01b03858116825284166020820152604081018390526080606082018190526000906123b090830184611d46565b9695505050505050565b6000602082840312156123cc57600080fd5b81516117f481611cef565b634e487b7160e01b600052601160045260246000fd5b8082028115828204841417610474576104746123d7565b80820180821115610474576104746123d7565b634e487b7160e01b600052603260045260246000fd5b60008161243c5761243c6123d7565b50600019019056feb19546dff01e856fb3f010c267a7b1c60363cf8a4664e21cc89c26224620214ea26469706673582212203c0da9529450f5e7ccd58638edb73ee6da4a77a364e92dfa686cf4f3b92e5cdc64736f6c63430008130033",
    "linkReferences": {}
  },
  "methodIdentifiers": {
    "DEFAULT_ADMIN_ROLE()": "a217fddf",
    "OWNER_ROLE()": "e58378bb",
    "addNewOwner(address)": "114d8be1",
    "approve(address,uint256)": "095ea7b3",
    "balanceOf(address)": "70a08231",
    "booking(uint256,uint256)": "1d6c9656",
    "checkIn(uint256,address)": "ad8d5eff",
    "getApproved(uint256)": "081812fc",
    "getRoleAdmin(bytes32)": "248a9ca3",
    "grantRole(bytes32,address)": "2f2ff15d",
    "hasRole(bytes32,address)": "91d14854",
    "isApprovedForAll(address,address)": "e985e9c5",
    "name()": "06fdde03",
    "owner()": "8da5cb5b",
    "ownerOf(uint256)": "6352211e",
    "property()": "176fd3f0",
    "renounceOwnership()": "715018a6",
    "renounceRole(bytes32,address)": "36568abe",
    "revokeRole(bytes32,address)": "d547741f",
    "safeTransferFrom(address,address,uint256)": "42842e0e",
    "safeTransferFrom(address,address,uint256,bytes)": "b88d4fde",
    "setApprovalForAll(address,bool)": "a22cb465",
    "supportsInterface(bytes4)": "01ffc9a7",
    "symbol()": "95d89b41",
    "tokenURI(uint256)": "c87b56dd",
    "transferFrom(address,address,uint256)": "23b872dd",
    "transferOwnership(address)": "f2fde38b",
    "updateRentPerDay(uint256)": "8a53becf",
    "updateUri(string)": "570b3c6a",
    "withdraw()": "3ccfd60b"
  },
  "id": 47
}