{"abi":[{"type":"constructor","inputs":[{"name":"_name","type":"string","internalType":"string"},{"name":"_symbol","type":"string","internalType":"string"},{"name":"_uri","type":"string","internalType":"string"},{"name":"_moken","type":"address","internalType":"address"},{"name":"_rentPerDay","type":"uint256","internalType":"uint256"},{"name":"_owner","type":"address","internalType":"address"}],"stateMutability":"nonpayable"},{"type":"function","name":"DEFAULT_ADMIN_ROLE","inputs":[],"outputs":[{"name":"","type":"bytes32","internalType":"bytes32"}],"stateMutability":"view"},{"type":"function","name":"OWNER_ROLE","inputs":[],"outputs":[{"name":"","type":"bytes32","internalType":"bytes32"}],"stateMutability":"view"},{"type":"function","name":"addNewOwner","inputs":[{"name":"_newOwner","type":"address","internalType":"address"}],"outputs":[],"stateMutability":"nonpayable"},{"type":"function","name":"approve","inputs":[{"name":"to","type":"address","internalType":"address"},{"name":"tokenId","type":"uint256","internalType":"uint256"}],"outputs":[],"stateMutability":"nonpayable"},{"type":"function","name":"balanceOf","inputs":[{"name":"owner","type":"address","internalType":"address"}],"outputs":[{"name":"","type":"uint256","internalType":"uint256"}],"stateMutability":"view"},{"type":"function","name":"booking","inputs":[{"name":"_startDay","type":"uint256","internalType":"uint256"},{"name":"_endDay","type":"uint256","internalType":"uint256"}],"outputs":[],"stateMutability":"payable"},{"type":"function","name":"burn","inputs":[{"name":"tokenId","type":"uint256","internalType":"uint256"}],"outputs":[],"stateMutability":"nonpayable"},{"type":"function","name":"checkIn","inputs":[{"name":"day","type":"uint256","internalType":"uint256"},{"name":"_tenant","type":"address","internalType":"address"}],"outputs":[{"name":"","type":"bool","internalType":"bool"}],"stateMutability":"nonpayable"},{"type":"function","name":"getApproved","inputs":[{"name":"tokenId","type":"uint256","internalType":"uint256"}],"outputs":[{"name":"","type":"address","internalType":"address"}],"stateMutability":"view"},{"type":"function","name":"getRoleAdmin","inputs":[{"name":"role","type":"bytes32","internalType":"bytes32"}],"outputs":[{"name":"","type":"bytes32","internalType":"bytes32"}],"stateMutability":"view"},{"type":"function","name":"grantRole","inputs":[{"name":"role","type":"bytes32","internalType":"bytes32"},{"name":"account","type":"address","internalType":"address"}],"outputs":[],"stateMutability":"nonpayable"},{"type":"function","name":"hasRole","inputs":[{"name":"role","type":"bytes32","internalType":"bytes32"},{"name":"account","type":"address","internalType":"address"}],"outputs":[{"name":"","type":"bool","internalType":"bool"}],"stateMutability":"view"},{"type":"function","name":"isApprovedForAll","inputs":[{"name":"owner","type":"address","internalType":"address"},{"name":"operator","type":"address","internalType":"address"}],"outputs":[{"name":"","type":"bool","internalType":"bool"}],"stateMutability":"view"},{"type":"function","name":"name","inputs":[],"outputs":[{"name":"","type":"string","internalType":"string"}],"stateMutability":"view"},{"type":"function","name":"ownerOf","inputs":[{"name":"tokenId","type":"uint256","internalType":"uint256"}],"outputs":[{"name":"","type":"address","internalType":"address"}],"stateMutability":"view"},{"type":"function","name":"pause","inputs":[],"outputs":[],"stateMutability":"nonpayable"},{"type":"function","name":"paused","inputs":[],"outputs":[{"name":"","type":"bool","internalType":"bool"}],"stateMutability":"view"},{"type":"function","name":"property","inputs":[],"outputs":[{"name":"uri","type":"string","internalType":"string"},{"name":"moken","type":"address","internalType":"address"},{"name":"rentPerDay","type":"uint256","internalType":"uint256"}],"stateMutability":"view"},{"type":"function","name":"renounceRole","inputs":[{"name":"role","type":"bytes32","internalType":"bytes32"},{"name":"callerConfirmation","type":"address","internalType":"address"}],"outputs":[],"stateMutability":"nonpayable"},{"type":"function","name":"revokeRole","inputs":[{"name":"role","type":"bytes32","internalType":"bytes32"},{"name":"account","type":"address","internalType":"address"}],"outputs":[],"stateMutability":"nonpayable"},{"type":"function","name":"safeTransferFrom","inputs":[{"name":"from","type":"address","internalType":"address"},{"name":"to","type":"address","internalType":"address"},{"name":"tokenId","type":"uint256","internalType":"uint256"}],"outputs":[],"stateMutability":"nonpayable"},{"type":"function","name":"safeTransferFrom","inputs":[{"name":"from","type":"address","internalType":"address"},{"name":"to","type":"address","internalType":"address"},{"name":"tokenId","type":"uint256","internalType":"uint256"},{"name":"data","type":"bytes","internalType":"bytes"}],"outputs":[],"stateMutability":"nonpayable"},{"type":"function","name":"setApprovalForAll","inputs":[{"name":"operator","type":"address","internalType":"address"},{"name":"approved","type":"bool","internalType":"bool"}],"outputs":[],"stateMutability":"nonpayable"},{"type":"function","name":"supportsInterface","inputs":[{"name":"interfaceId","type":"bytes4","internalType":"bytes4"}],"outputs":[{"name":"","type":"bool","internalType":"bool"}],"stateMutability":"view"},{"type":"function","name":"symbol","inputs":[],"outputs":[{"name":"","type":"string","internalType":"string"}],"stateMutability":"view"},{"type":"function","name":"tokenURI","inputs":[{"name":"tokenId","type":"uint256","internalType":"uint256"}],"outputs":[{"name":"","type":"string","internalType":"string"}],"stateMutability":"view"},{"type":"function","name":"transferFrom","inputs":[{"name":"from","type":"address","internalType":"address"},{"name":"to","type":"address","internalType":"address"},{"name":"tokenId","type":"uint256","internalType":"uint256"}],"outputs":[],"stateMutability":"nonpayable"},{"type":"function","name":"unpause","inputs":[],"outputs":[],"stateMutability":"nonpayable"},{"type":"function","name":"updateRentPerDay","inputs":[{"name":"_rentPerDay","type":"uint256","internalType":"uint256"}],"outputs":[],"stateMutability":"nonpayable"},{"type":"function","name":"updateUri","inputs":[{"name":"_uri","type":"string","internalType":"string"}],"outputs":[],"stateMutability":"nonpayable"},{"type":"function","name":"withdraw","inputs":[],"outputs":[],"stateMutability":"nonpayable"},{"type":"event","name":"Approval","inputs":[{"name":"owner","type":"address","indexed":true,"internalType":"address"},{"name":"approved","type":"address","indexed":true,"internalType":"address"},{"name":"tokenId","type":"uint256","indexed":true,"internalType":"uint256"}],"anonymous":false},{"type":"event","name":"ApprovalForAll","inputs":[{"name":"owner","type":"address","indexed":true,"internalType":"address"},{"name":"operator","type":"address","indexed":true,"internalType":"address"},{"name":"approved","type":"bool","indexed":false,"internalType":"bool"}],"anonymous":false},{"type":"event","name":"BatchMetadataUpdate","inputs":[{"name":"_fromTokenId","type":"uint256","indexed":false,"internalType":"uint256"},{"name":"_toTokenId","type":"uint256","indexed":false,"internalType":"uint256"}],"anonymous":false},{"type":"event","name":"CheckIn","inputs":[{"name":"day","type":"uint256","indexed":false,"internalType":"uint256"},{"name":"tenant","type":"address","indexed":false,"internalType":"address"}],"anonymous":false},{"type":"event","name":"FeePayment","inputs":[{"name":"owner","type":"address","indexed":false,"internalType":"address"},{"name":"amount","type":"uint256","indexed":false,"internalType":"uint256"}],"anonymous":false},{"type":"event","name":"MetadataUpdate","inputs":[{"name":"_tokenId","type":"uint256","indexed":false,"internalType":"uint256"}],"anonymous":false},{"type":"event","name":"NewBooking","inputs":[{"name":"startDay","type":"uint256","indexed":false,"internalType":"uint256"},{"name":"endDay","type":"uint256","indexed":false,"internalType":"uint256"},{"name":"tenant","type":"address","indexed":false,"internalType":"address"}],"anonymous":false},{"type":"event","name":"Paused","inputs":[{"name":"account","type":"address","indexed":false,"internalType":"address"}],"anonymous":false},{"type":"event","name":"RoleAdminChanged","inputs":[{"name":"role","type":"bytes32","indexed":true,"internalType":"bytes32"},{"name":"previousAdminRole","type":"bytes32","indexed":true,"internalType":"bytes32"},{"name":"newAdminRole","type":"bytes32","indexed":true,"internalType":"bytes32"}],"anonymous":false},{"type":"event","name":"RoleGranted","inputs":[{"name":"role","type":"bytes32","indexed":true,"internalType":"bytes32"},{"name":"account","type":"address","indexed":true,"internalType":"address"},{"name":"sender","type":"address","indexed":true,"internalType":"address"}],"anonymous":false},{"type":"event","name":"RoleRevoked","inputs":[{"name":"role","type":"bytes32","indexed":true,"internalType":"bytes32"},{"name":"account","type":"address","indexed":true,"internalType":"address"},{"name":"sender","type":"address","indexed":true,"internalType":"address"}],"anonymous":false},{"type":"event","name":"Transfer","inputs":[{"name":"from","type":"address","indexed":true,"internalType":"address"},{"name":"to","type":"address","indexed":true,"internalType":"address"},{"name":"tokenId","type":"uint256","indexed":true,"internalType":"uint256"}],"anonymous":false},{"type":"event","name":"Unpaused","inputs":[{"name":"account","type":"address","indexed":false,"internalType":"address"}],"anonymous":false},{"type":"event","name":"Withdraw","inputs":[{"name":"owner","type":"address","indexed":false,"internalType":"address"},{"name":"amount","type":"uint256","indexed":false,"internalType":"uint256"}],"anonymous":false},{"type":"error","name":"AccessControlBadConfirmation","inputs":[]},{"type":"error","name":"AccessControlUnauthorizedAccount","inputs":[{"name":"account","type":"address","internalType":"address"},{"name":"neededRole","type":"bytes32","internalType":"bytes32"}]},{"type":"error","name":"BookingFailed","inputs":[{"name":"tenant","type":"address","internalType":"address"},{"name":"startDay","type":"uint256","internalType":"uint256"},{"name":"endDay","type":"uint256","internalType":"uint256"},{"name":"amount","type":"uint256","internalType":"uint256"}]},{"type":"error","name":"CheckInFailed","inputs":[{"name":"day","type":"uint256","internalType":"uint256"},{"name":"tenant","type":"address","internalType":"address"}]},{"type":"error","name":"DayAlreadyBooked","inputs":[{"name":"tenant","type":"address","internalType":"address"},{"name":"day","type":"uint256","internalType":"uint256"}]},{"type":"error","name":"ERC721IncorrectOwner","inputs":[{"name":"sender","type":"address","internalType":"address"},{"name":"tokenId","type":"uint256","internalType":"uint256"},{"name":"owner","type":"address","internalType":"address"}]},{"type":"error","name":"ERC721InsufficientApproval","inputs":[{"name":"operator","type":"address","internalType":"address"},{"name":"tokenId","type":"uint256","internalType":"uint256"}]},{"type":"error","name":"ERC721InvalidApprover","inputs":[{"name":"approver","type":"address","internalType":"address"}]},{"type":"error","name":"ERC721InvalidOperator","inputs":[{"name":"operator","type":"address","internalType":"address"}]},{"type":"error","name":"ERC721InvalidOwner","inputs":[{"name":"owner","type":"address","internalType":"address"}]},{"type":"error","name":"ERC721InvalidReceiver","inputs":[{"name":"receiver","type":"address","internalType":"address"}]},{"type":"error","name":"ERC721InvalidSender","inputs":[{"name":"sender","type":"address","internalType":"address"}]},{"type":"error","name":"ERC721NonexistentToken","inputs":[{"name":"tokenId","type":"uint256","internalType":"uint256"}]},{"type":"error","name":"EnforcedPause","inputs":[]},{"type":"error","name":"ExpectedPause","inputs":[]},{"type":"error","name":"FeePaymentFailed","inputs":[{"name":"owner","type":"address","internalType":"address"},{"name":"amount","type":"uint256","internalType":"uint256"}]},{"type":"error","name":"GrantAllowanceFailed","inputs":[{"name":"sender","type":"address","internalType":"address"},{"name":"amount","type":"uint256","internalType":"uint256"}]},{"type":"error","name":"WithdrawFailed","inputs":[{"name":"owner","type":"address","internalType":"address"},{"name":"amount","type":"uint256","internalType":"uint256"}]}],"bytecode":{"object":"0x60806040523480156200001157600080fd5b50604051620024603803806200246083398101604081905262000034916200026e565b85856000620000448382620003be565b506001620000538282620003be565b50506007805460ff191690555060096200006e8582620003be565b50600a80546001600160a01b0319166001600160a01b038516179055600b8290556200009c600082620000d6565b50620000c97fb19546dff01e856fb3f010c267a7b1c60363cf8a4664e21cc89c26224620214e82620000d6565b505050505050506200048a565b60008281526008602090815260408083206001600160a01b038516845290915281205460ff166200017f5760008381526008602090815260408083206001600160a01b03861684529091529020805460ff19166001179055620001363390565b6001600160a01b0316826001600160a01b0316847f2f8788117e7eff1d82e926ec794901d17c78024a50270940304540a733656f0d60405160405180910390a450600162000183565b5060005b92915050565b634e487b7160e01b600052604160045260246000fd5b600082601f830112620001b157600080fd5b81516001600160401b0380821115620001ce57620001ce62000189565b604051601f8301601f19908116603f01168101908282118183101715620001f957620001f962000189565b81604052838152602092508660208588010111156200021757600080fd5b600091505b838210156200023b57858201830151818301840152908201906200021c565b6000602085830101528094505050505092915050565b80516001600160a01b03811681146200026957600080fd5b919050565b60008060008060008060c087890312156200028857600080fd5b86516001600160401b0380821115620002a057600080fd5b620002ae8a838b016200019f565b97506020890151915080821115620002c557600080fd5b620002d38a838b016200019f565b96506040890151915080821115620002ea57600080fd5b50620002f989828a016200019f565b9450506200030a6060880162000251565b9250608087015191506200032160a0880162000251565b90509295509295509295565b600181811c908216806200034257607f821691505b6020821081036200036357634e487b7160e01b600052602260045260246000fd5b50919050565b601f821115620003b9576000816000526020600020601f850160051c81016020861015620003945750805b601f850160051c820191505b81811015620003b557828155600101620003a0565b5050505b505050565b81516001600160401b03811115620003da57620003da62000189565b620003f281620003eb84546200032d565b8462000369565b602080601f8311600181146200042a5760008415620004115750858301515b600019600386901b1c1916600185901b178555620003b5565b600085815260208120601f198616915b828110156200045b578886015182559484019460019091019084016200043a565b50858210156200047a5787850151600019600388901b60f8161c191681555b5050505050600190811b01905550565b611fc6806200049a6000396000f3fe6080604052600436106101d85760003560e01c8063570b3c6a11610102578063a217fddf11610095578063c87b56dd11610064578063c87b56dd14610544578063d547741f14610564578063e58378bb14610584578063e985e9c5146105a657600080fd5b8063a217fddf146104cf578063a22cb465146104e4578063ad8d5eff14610504578063b88d4fde1461052457600080fd5b80638456cb59116100d15780638456cb59146104655780638a53becf1461047a57806391d148541461049a57806395d89b41146104ba57600080fd5b8063570b3c6a146103ed5780635c975abb1461040d5780636352211e1461042557806370a082311461044557600080fd5b806323b872dd1161017a5780633ccfd60b116101495780633ccfd60b146103835780633f4ba83a1461039857806342842e0e146103ad57806342966c68146103cd57600080fd5b806323b872dd146102e5578063248a9ca3146103055780632f2ff15d1461034357806336568abe1461036357600080fd5b8063095ea7b3116101b6578063095ea7b31461026c578063114d8be11461028e578063176fd3f0146102ae5780631d6c9656146102d257600080fd5b806301ffc9a7146101dd57806306fdde0314610212578063081812fc14610234575b600080fd5b3480156101e957600080fd5b506101fd6101f83660046119a6565b6105c6565b60405190151581526020015b60405180910390f35b34801561021e57600080fd5b506102276105d7565b6040516102099190611a13565b34801561024057600080fd5b5061025461024f366004611a26565b610669565b6040516001600160a01b039091168152602001610209565b34801561027857600080fd5b5061028c610287366004611a5b565b610692565b005b34801561029a57600080fd5b5061028c6102a9366004611a85565b6106a1565b3480156102ba57600080fd5b506102c36106e2565b60405161020993929190611aa0565b61028c6102e0366004611ace565b61078a565b3480156102f157600080fd5b5061028c610300366004611af0565b610963565b34801561031157600080fd5b50610335610320366004611a26565b60009081526008602052604090206001015490565b604051908152602001610209565b34801561034f57600080fd5b5061028c61035e366004611b2c565b6109ee565b34801561036f57600080fd5b5061028c61037e366004611b2c565b610a13565b34801561038f57600080fd5b5061028c610a46565b3480156103a457600080fd5b5061028c610b1e565b3480156103b957600080fd5b5061028c6103c8366004611af0565b610b41565b3480156103d957600080fd5b5061028c6103e8366004611a26565b610b5c565b3480156103f957600080fd5b5061028c610408366004611be4565b610b68565b34801561041957600080fd5b5060075460ff166101fd565b34801561043157600080fd5b50610254610440366004611a26565b610b8c565b34801561045157600080fd5b50610335610460366004611a85565b610b97565b34801561047157600080fd5b5061028c610bdf565b34801561048657600080fd5b5061028c610495366004611a26565b610bff565b3480156104a657600080fd5b506101fd6104b5366004611b2c565b610c1d565b3480156104c657600080fd5b50610227610c48565b3480156104db57600080fd5b50610335600081565b3480156104f057600080fd5b5061028c6104ff366004611c2d565b610c57565b34801561051057600080fd5b506101fd61051f366004611b2c565b610c62565b34801561053057600080fd5b5061028c61053f366004611c69565b610cc8565b34801561055057600080fd5b5061022761055f366004611a26565b610cdf565b34801561057057600080fd5b5061028c61057f366004611b2c565b610cea565b34801561059057600080fd5b50610335600080516020611f7183398151915281565b3480156105b257600080fd5b506101fd6105c1366004611ce5565b610d0f565b60006105d182610d3d565b92915050565b6060600080546105e690611d0f565b80601f016020809104026020016040519081016040528092919081815260200182805461061290611d0f565b801561065f5780601f106106345761010080835404028352916020019161065f565b820191906000526020600020905b81548152906001019060200180831161064257829003601f168201915b5050505050905090565b600061067482610d62565b506000828152600460205260409020546001600160a01b03166105d1565b61069d828233610d9b565b5050565b600080516020611f718339815191526106b981610da8565b6106c4600083610db2565b506106dd600080516020611f7183398151915283610db2565b505050565b6009805481906106f190611d0f565b80601f016020809104026020016040519081016040528092919081815260200182805461071d90611d0f565b801561076a5780601f1061073f5761010080835404028352916020019161076a565b820191906000526020600020905b81548152906001019060200180831161074d57829003601f168201915b50505050600183015460029093015491926001600160a01b031691905083565b6107948282611d5f565b61079f906001611d72565b600b546107ac9190611d85565b3410806107b857508082115b156107f157604051631ec596d760e11b815233600482015260248101839052604481018290523460648201526084015b60405180910390fd5b815b8181116106dd576000818152600c6020526040902054600160a01b900460ff16151560010361083e57604051633be965f360e01b8152336004820152602481018290526044016107e8565b600d80546000918261084f83611d9c565b91905055905061085e34610e46565b6108683382610f16565b6108ff816009600001805461087c90611d0f565b80601f01602080910402602001604051908101604052809291908181526020018280546108a890611d0f565b80156108f55780601f106108ca576101008083540402835291602001916108f5565b820191906000526020600020905b8154815290600101906020018083116108d857829003601f168201915b5050505050610f30565b50604080518082018252338152600160208083019182526000858152600c909152929092209051815492511515600160a01b026001600160a81b03199093166001600160a01b0391909116179190911790558061095b81611d9c565b9150506107f3565b6001600160a01b03821661098d57604051633250574960e11b8152600060048201526024016107e8565b600061099a838333610f80565b9050836001600160a01b0316816001600160a01b0316146109e8576040516364283d7b60e01b81526001600160a01b03808616600483015260248201849052821660448201526064016107e8565b50505050565b600082815260086020526040902060010154610a0981610da8565b6109e88383610db2565b6001600160a01b0381163314610a3c5760405163334bd91960e11b815260040160405180910390fd5b6106dd8282610f95565b600080516020611f71833981519152610a5e81610da8565b600a5460405147916000916001600160a01b039091169083908381818185875af1925050503d8060008114610aaf576040519150601f19603f3d011682016040523d82523d6000602084013e610ab4565b606091505b5050905080610adf576040516351134c8960e11b8152336004820152602481018390526044016107e8565b60408051338152602081018490527f884edad9ce6fa2440d8a54cc123490eb96d2768479d49ff9c7366125a942436491015b60405180910390a1505050565b600080516020611f71833981519152610b3681610da8565b610b3e611002565b50565b6106dd83838360405180602001604052806000815250610cc8565b61069d60008233610f80565b600080516020611f71833981519152610b8081610da8565b60096106dd8382611e05565b60006105d182610d62565b60006001600160a01b038216610bc3576040516322718ad960e21b8152600060048201526024016107e8565b506001600160a01b031660009081526003602052604090205490565b600080516020611f71833981519152610bf781610da8565b610b3e611054565b600080516020611f71833981519152610c1781610da8565b50600b55565b60009182526008602090815260408084206001600160a01b0393909316845291905290205460ff1690565b6060600180546105e690611d0f565b61069d338383611091565b604080518381526001600160a01b03831660208201526000917f1a777a4e69f842f69af228bdecb2e58e1ab9d68e3c8694533ddb6ff9dd243f82910160405180910390a1506000918252600c6020526040909120546001600160a01b0391821691161490565b610cd3848484610963565b6109e884848484611130565b60606105d182611259565b600082815260086020526040902060010154610d0581610da8565b6109e88383610f95565b6001600160a01b03918216600090815260056020908152604080832093909416825291909152205460ff1690565b60006001600160e01b03198216637965db0b60e01b14806105d157506105d182611362565b6000818152600260205260408120546001600160a01b0316806105d157604051637e27328960e01b8152600481018490526024016107e8565b6106dd8383836001611387565b610b3e813361148d565b6000610dbe8383610c1d565b610e3e5760008381526008602090815260408083206001600160a01b03861684529091529020805460ff19166001179055610df63390565b6001600160a01b0316826001600160a01b0316847f2f8788117e7eff1d82e926ec794901d17c78024a50270940304540a733656f0d60405160405180910390a45060016105d1565b5060006105d1565b60006064610e55836005611d85565b610e5f9190611ec5565b600a546040519192506000916001600160a01b039091169083908381818185875af1925050503d8060008114610eb1576040519150601f19603f3d011682016040523d82523d6000602084013e610eb6565b606091505b5050905080610ee157604051635370fd8d60e01b8152306004820152602481018390526044016107e8565b60408051308152602081018490527e57d762ad8f1734de771f2b521b2668347c0cee2d709a12254662cd5a7d41809101610b11565b61069d8282604051806020016040528060008152506114c6565b6000828152600660205260409020610f488282611e05565b506040518281527ff8e1a15aba9398e019f0b49df1a4fde98ee17ae345cb5f6b5e2c27f5033e8ce79060200160405180910390a15050565b6000610f8d8484846114dd565b949350505050565b6000610fa18383610c1d565b15610e3e5760008381526008602090815260408083206001600160a01b0386168085529252808320805460ff1916905551339286917ff6391f5c32d9c69d2a47ea670b442974b53935d1edc7fd64eb21e047a839171b9190a45060016105d1565b61100a6114f2565b6007805460ff191690557f5db9ee0a495bf2e6ff9c91a7834c1ba4fdd244a5e8aa4e537bd38aeae4b073aa335b6040516001600160a01b03909116815260200160405180910390a1565b61105c611517565b6007805460ff191660011790557f62e78cea01bee320cd4e420270b5ea74000d11b0c9f74754ebdbfc544b05a2586110373390565b6001600160a01b0382166110c357604051630b61174360e31b81526001600160a01b03831660048201526024016107e8565b6001600160a01b03838116600081815260056020908152604080832094871680845294825291829020805460ff191686151590811790915591519182527f17307eab39ab6107e8899845ad3d59bd9653f200f220920489ca2b5937696c31910160405180910390a3505050565b6001600160a01b0383163b156109e857604051630a85bd0160e11b81526001600160a01b0384169063150b7a0290611172903390889087908790600401611ee7565b6020604051808303816000875af19250505080156111ad575060408051601f3d908101601f191682019092526111aa91810190611f24565b60015b611216573d8080156111db576040519150601f19603f3d011682016040523d82523d6000602084013e6111e0565b606091505b50805160000361120e57604051633250574960e11b81526001600160a01b03851660048201526024016107e8565b805181602001fd5b6001600160e01b03198116630a85bd0160e11b1461125257604051633250574960e11b81526001600160a01b03851660048201526024016107e8565b5050505050565b606061126482610d62565b506000828152600660205260408120805461127e90611d0f565b80601f01602080910402602001604051908101604052809291908181526020018280546112aa90611d0f565b80156112f75780601f106112cc576101008083540402835291602001916112f7565b820191906000526020600020905b8154815290600101906020018083116112da57829003601f168201915b50505050509050600061131560408051602081019091526000815290565b90508051600003611327575092915050565b815115611359578082604051602001611341929190611f41565b60405160208183030381529060405292505050919050565b610f8d8461153b565b60006001600160e01b03198216632483248360e11b14806105d157506105d1826115b0565b808061139b57506001600160a01b03821615155b1561145d5760006113ab84610d62565b90506001600160a01b038316158015906113d75750826001600160a01b0316816001600160a01b031614155b80156113ea57506113e88184610d0f565b155b156114135760405163a9fbf51f60e01b81526001600160a01b03841660048201526024016107e8565b811561145b5783856001600160a01b0316826001600160a01b03167f8c5be1e5ebec7d5bd14f71427d1e84f3dd0314c0f7b2291e5b200ac8c7c3b92560405160405180910390a45b505b5050600090815260046020526040902080546001600160a01b0319166001600160a01b0392909216919091179055565b6114978282610c1d565b61069d5760405163e2517d3f60e01b81526001600160a01b0382166004820152602481018390526044016107e8565b6114d08383611600565b6106dd6000848484611130565b60006114e7611517565b610f8d848484611665565b60075460ff1661151557604051638dfc202b60e01b815260040160405180910390fd5b565b60075460ff16156115155760405163d93c066560e01b815260040160405180910390fd5b606061154682610d62565b50600061155e60408051602081019091526000815290565b9050600081511161157e57604051806020016040528060008152506115a9565b806115888461175e565b604051602001611599929190611f41565b6040516020818303038152906040525b9392505050565b60006001600160e01b031982166380ac58cd60e01b14806115e157506001600160e01b03198216635b5e139f60e01b145b806105d157506301ffc9a760e01b6001600160e01b03198316146105d1565b6001600160a01b03821661162a57604051633250574960e11b8152600060048201526024016107e8565b600061163883836000610f80565b90506001600160a01b038116156106dd576040516339e3563760e11b8152600060048201526024016107e8565b6000828152600260205260408120546001600160a01b0390811690831615611692576116928184866117f1565b6001600160a01b038116156116d0576116af600085600080611387565b6001600160a01b038116600090815260036020526040902080546000190190555b6001600160a01b038516156116ff576001600160a01b0385166000908152600360205260409020805460010190555b60008481526002602052604080822080546001600160a01b0319166001600160a01b0389811691821790925591518793918516917fddf252ad1be2c89b69c2b068fc378daa952ba7f163c4a11628f55a4df523b3ef91a4949350505050565b6060600061176b83611855565b600101905060008167ffffffffffffffff81111561178b5761178b611b58565b6040519080825280601f01601f1916602001820160405280156117b5576020820181803683370190505b5090508181016020015b600019016f181899199a1a9b1b9c1cb0b131b232b360811b600a86061a8153600a85049450846117bf57509392505050565b6117fc83838361192d565b6106dd576001600160a01b03831661182a57604051637e27328960e01b8152600481018290526024016107e8565b60405163177e802f60e01b81526001600160a01b0383166004820152602481018290526044016107e8565b60008072184f03e93ff9f4daa797ed6e38ed64bf6a1f0160401b83106118945772184f03e93ff9f4daa797ed6e38ed64bf6a1f0160401b830492506040015b6d04ee2d6d415b85acef810000000083106118c0576d04ee2d6d415b85acef8100000000830492506020015b662386f26fc1000083106118de57662386f26fc10000830492506010015b6305f5e10083106118f6576305f5e100830492506008015b612710831061190a57612710830492506004015b6064831061191c576064830492506002015b600a83106105d15760010192915050565b60006001600160a01b03831615801590610f8d5750826001600160a01b0316846001600160a01b0316148061196757506119678484610d0f565b80610f8d5750506000908152600460205260409020546001600160a01b03908116911614919050565b6001600160e01b031981168114610b3e57600080fd5b6000602082840312156119b857600080fd5b81356115a981611990565b60005b838110156119de5781810151838201526020016119c6565b50506000910152565b600081518084526119ff8160208601602086016119c3565b601f01601f19169290920160200192915050565b6020815260006115a960208301846119e7565b600060208284031215611a3857600080fd5b5035919050565b80356001600160a01b0381168114611a5657600080fd5b919050565b60008060408385031215611a6e57600080fd5b611a7783611a3f565b946020939093013593505050565b600060208284031215611a9757600080fd5b6115a982611a3f565b606081526000611ab360608301866119e7565b6001600160a01b039490941660208301525060400152919050565b60008060408385031215611ae157600080fd5b50508035926020909101359150565b600080600060608486031215611b0557600080fd5b611b0e84611a3f565b9250611b1c60208501611a3f565b9150604084013590509250925092565b60008060408385031215611b3f57600080fd5b82359150611b4f60208401611a3f565b90509250929050565b634e487b7160e01b600052604160045260246000fd5b600067ffffffffffffffff80841115611b8957611b89611b58565b604051601f8501601f19908116603f01168101908282118183101715611bb157611bb1611b58565b81604052809350858152868686011115611bca57600080fd5b858560208301376000602087830101525050509392505050565b600060208284031215611bf657600080fd5b813567ffffffffffffffff811115611c0d57600080fd5b8201601f81018413611c1e57600080fd5b610f8d84823560208401611b6e565b60008060408385031215611c4057600080fd5b611c4983611a3f565b915060208301358015158114611c5e57600080fd5b809150509250929050565b60008060008060808587031215611c7f57600080fd5b611c8885611a3f565b9350611c9660208601611a3f565b925060408501359150606085013567ffffffffffffffff811115611cb957600080fd5b8501601f81018713611cca57600080fd5b611cd987823560208401611b6e565b91505092959194509250565b60008060408385031215611cf857600080fd5b611d0183611a3f565b9150611b4f60208401611a3f565b600181811c90821680611d2357607f821691505b602082108103611d4357634e487b7160e01b600052602260045260246000fd5b50919050565b634e487b7160e01b600052601160045260246000fd5b818103818111156105d1576105d1611d49565b808201808211156105d1576105d1611d49565b80820281158282048414176105d1576105d1611d49565b600060018201611dae57611dae611d49565b5060010190565b601f8211156106dd576000816000526020600020601f850160051c81016020861015611dde5750805b601f850160051c820191505b81811015611dfd57828155600101611dea565b505050505050565b815167ffffffffffffffff811115611e1f57611e1f611b58565b611e3381611e2d8454611d0f565b84611db5565b602080601f831160018114611e685760008415611e505750858301515b600019600386901b1c1916600185901b178555611dfd565b600085815260208120601f198616915b82811015611e9757888601518255948401946001909101908401611e78565b5085821015611eb55787850151600019600388901b60f8161c191681555b5050505050600190811b01905550565b600082611ee257634e487b7160e01b600052601260045260246000fd5b500490565b6001600160a01b0385811682528416602082015260408101839052608060608201819052600090611f1a908301846119e7565b9695505050505050565b600060208284031215611f3657600080fd5b81516115a981611990565b60008351611f538184602088016119c3565b835190830190611f678183602088016119c3565b0194935050505056feb19546dff01e856fb3f010c267a7b1c60363cf8a4664e21cc89c26224620214ea264697066735822122087f13244c2ac50eb2e1353d1e47940a092414acbc95d946f1fd1144c218794cb64736f6c63430008170033","linkReferences":{}},"methodIdentifiers":{"DEFAULT_ADMIN_ROLE()":"a217fddf","OWNER_ROLE()":"e58378bb","addNewOwner(address)":"114d8be1","approve(address,uint256)":"095ea7b3","balanceOf(address)":"70a08231","booking(uint256,uint256)":"1d6c9656","burn(uint256)":"42966c68","checkIn(uint256,address)":"ad8d5eff","getApproved(uint256)":"081812fc","getRoleAdmin(bytes32)":"248a9ca3","grantRole(bytes32,address)":"2f2ff15d","hasRole(bytes32,address)":"91d14854","isApprovedForAll(address,address)":"e985e9c5","name()":"06fdde03","ownerOf(uint256)":"6352211e","pause()":"8456cb59","paused()":"5c975abb","property()":"176fd3f0","renounceRole(bytes32,address)":"36568abe","revokeRole(bytes32,address)":"d547741f","safeTransferFrom(address,address,uint256)":"42842e0e","safeTransferFrom(address,address,uint256,bytes)":"b88d4fde","setApprovalForAll(address,bool)":"a22cb465","supportsInterface(bytes4)":"01ffc9a7","symbol()":"95d89b41","tokenURI(uint256)":"c87b56dd","transferFrom(address,address,uint256)":"23b872dd","unpause()":"3f4ba83a","updateRentPerDay(uint256)":"8a53becf","updateUri(string)":"570b3c6a","withdraw()":"3ccfd60b"},"id":46}